:040000000180006F0C
:0400010012C0006FBA
:040002000E00006F7D
:040003000C40006F3E
:040004001080006FF9
:040005000EC0006FBA
:040006000000009363
:040007000000811361
:0400080000008193E0
:04000900000082135E
:04000A0000008293DD
:04000B00000083135B
:04000C0000008393DA
:04000D000000841358
:04000E0000008493D7
:04000F000000851355
:0400100000008593D4
:040011000000861352
:0400120000008693D1
:04001300000087134F
:0400140000008793CE
:04001500000088134C
:0400160000008893CB
:040017000000891349
:0400180000008993C8
:0400190000008A1346
:04001A0000008A93C5
:04001B0000008B1343
:04001C0000008B93C2
:04001D0000008C1340
:04001E0000008C93BF
:04001F0000008D133D
:0400200000008D93BC
:0400210000008E133A
:0400220000008E93B9
:0400230000008F1337
:0400240000008F93B6
:0400250030501073D4
:04002600000111972D
:04002700EEC1819312
:04002800000141177B
:04002900F6010113C8
:04002A00000104339A
:04002B008101869336
:04002C0087018713AE
:04002D0000E6FC638A
:04002E008101879332
:04002F000007802323
:0400300000000013B9
:04003100001787939A
:04003200FEE79AE368
:04003300174000EF83
:04003400F081011343
:040035000E112A235B
:04003600070000EFD0
:04003700000000972E
:040038000E40809363
:0400390015C0006F7F
:04003A00F08101133D
:04003B000E112A2355
:04003C00058000EF4C
:04003D000000009728
:04003E000CC08093DF
:04003F001440006FFA
:04004000F081011337
:040041000E112A234F
:04004200040000EFC7
:040043000000009722
:040044000B4080935A
:0400450012C0006F76
:04004600F081011331
:040047000E112A2349
:04004800028000EF43
:04004900000000971C
:04004A0009C08093D6
:04004B001140006FF1
:04004C00F08101132B
:04004D000E112A2343
:04004E00010000EFBE
:04004F000000009716
:040050000840809351
:040051000FC0006F6D
:040052000031202336
:040053000041222323
:040054000051242310
:0400550000612623FD
:0400560000712823EA
:0400570000812A23D7
:0400580000912C23C4
:0400590000A12E23B1
:04005A0002B12023AC
:04005B0002C1222399
:04005C0002D1242386
:04005D0002E1262373
:04005E0002F1282360
:04005F0003012A234C
:0400600003112C2339
:0400610003212E2326
:040062000531202321
:04006300054122230E
:0400640005512423FB
:0400650005612623E8
:0400660005712823D5
:0400670005812A23C2
:0400680005912C23AF
:0400690005A12E239C
:04006A0007B1202397
:04006B0007C1222384
:04006C0007D1242371
:04006D0007E126235E
:04006E0007F128234B
:04006F0000008067A6
:0400700000012183E7
:040071000041220325
:040072000081228364
:0400730000C12303A2
:0400740001012383E0
:04007500014124031E
:04007600018124835D
:0400770001C125039B
:0400780002012583D9
:040079000241260317
:04007A000281268356
:04007B0002C1270394
:04007C0003012783D2
:04007D000341280310
:04007E00038128834F
:04007F0003C129038D
:0400800004012983CB
:0400810004412A0309
:0400820004812A8348
:0400830004C12B0386
:0400840005012B83C4
:0400850005412C0302
:0400860005812C8341
:0400870005C12D037F
:0400880006012D83BD
:0400890006412E03FB
:04008A0006812E833A
:04008B0006C12F0378
:04008C0007012F83B6
:04008D000F4120837C
:04008E000F810113CA
:04008F0030200073AA
:040090000001C5376F
:04009100FF01011357
:04009200200505132D
:04009300001126230F
:0400940010D010EF89
:040095000A8000EFEE
:0400960002050263FA
:04009700006007936B
:0400980002A7EE636A
:040099000001073724
:04009A000025179393
:04009B000007071340
:04009C0000E787B33F
:04009D000007A7832E
:04009E000007806770
:04009F000001053720
:0400A00001C505137E
:0400A100159010EFB7
:0400A2000000006FEB
:0400A300000105371C
:0400A4000D0505132E
:0400A500149010EFB4
:0400A600FF1FF06FD9
:0400A7000001053718
:0400A8000EC5051369
:0400A900139010EFB1
:0400AA00FE1FF06FD6
:0400AB000001053714
:0400AC0003850513B0
:0400AD00129010EFAE
:0400AE00FD1FF06FD3
:0400AF000001053710
:0400B00005850513AA
:0400B100119010EFAB
:0400B200FC1FF06FD0
:0400B300000105370C
:0400B40007850513A4
:0400B500109010EFA8
:0400B600FB1FF06FCD
:0400B7000001053708
:0400B800098505139E
:0400B9000F9010EFA5
:0400BA00FA1FF06FCA
:0400BB000001053704
:0400BC000B450513D8
:0400BD000E9010EFA2
:0400BE00F91FF06FC7
:0400BF000001053700
:0400C000FF01011328
:0400C10010450513CE
:0400C20000112623E0
:0400C3000081242371
:0400C4000CD010EF5D
:0400C50000010537FA
:0400C60012450513C7
:0400C7000C1010EF1A
:0400C80071D010EFF4
:0400C900001004130C
:0400CA0000050C63BE
:0400CB000004051315
:0400CC0000C12083CC
:0400CD000081240387
:0400CE000101011318
:0400CF000000806746
:0400D00000010537EF
:0400D10014450513BA
:0400D200095010EFD2
:0400D30000010537EC
:0400D40016450513B5
:0400D500089010EF90
:0400D600201010EFF7
:0400D70000200413EE
:0400D800FC0516E32A
:0400D90000010537E6
:0400DA0018450513AD
:0400DB00071010EF0B
:0400DC0000010537E3
:0400DD001A450513A8
:0400DE00065010EFC9
:0400DF004B9010EF43
:0400E0000005041300
:0400E100020512639F
:0400E20000010537DD
:0400E3001C450513A0
:0400E40004D010EF45
:0400E50000040513FB
:0400E60000C12083B2
:0400E700008124036D
:0400E80001010113FE
:0400E900000080672C
:0400EA0000300413CB
:0400EB0000040513F5
:0400EC0000C12083AC
:0400ED000081240367
:0400EE0001010113F8
:0400EF000000806726
:0400F00030047073F5
:0400F1000000806724
:0400F2003004607303
:0400F3000000806722
:0400F400F6010113FD
:0400F50008912A2321
:0400F6000941242375
:0400F70008112E239B
:0400F80008812C232C
:0400F900092128238E
:0400FA00093126237F
:0400FB000951222362
:0400FC000961202353
:0400FD0007712E2336
:0400FE0007812C2327
:0400FF0007912A2318
:0401000007A1282308
:0401010007B12623F9
:040102000407F813E3
:04010300000504935C
:0401040000060A13D4
:040105001E08066367
:04010600000108B735
:040107004188889310
:040108000107FD13DB
:040109001C0D106356
:04010A000017F613D1
:04010B000117FE13C7
:04010C0003000C13CD
:04010D001A060C635F
:04010E000027F613BD
:04010F000207FD9353
:040110001C06066360
:040111001C05C8639E
:040112000047F61399
:0401130020061A6345
:040114000087F793D6
:0401150000000313D0
:0401160000078663F5
:04011700FFF68693D6
:0401180002000313CB
:04011900000D8C63E6
:04011A000100079346
:04011B0020FA0C6357
:04011C00FF8A0793BC
:04011D000017B7937D
:04011E0040F686B36E
:04011F001A059463C6
:04012000030007933E
:0401210000F10E23B8
:0401220000000913BD
:0401230000100C9329
:04012400001009932B
:0401250001C10413FD
:04012600000C8A93AC
:0401270000ECD463B1
:0401280000070A932F
:0401290041568B337D
:04012A00FFFB0B9339
:04012B00020E166347
:04012C001F605C6391
:04012D00000B0613AA
:04012E000004851331
:04012F000200059332
:040130000061262321
:040131000E8040EF0D
:0401320000C12303E2
:04013300016484B32C
:04013400FFE00B934A
:04013500FFF00B13B9
:040136000003066359
:0401370000648023BD
:040138000014849398
:04013900000D8A63C8
:04013A0000800793A7
:04013B001AFA006349
:04013C000100079324
:04013D0016FA0C633F
:04013E00020D1C632F
:04013F001B6050638E
:04014000FFFBCA13E4
:0401410041FA5A1312
:04014200014BFA3340
:04014300001A0D137E
:04014400FFFB8B131F
:04014500000485131A
:04014600000D06138F
:04014700000C059310
:04014800414B0B33E9
:04014900088040EFFB
:04014A0001A484B3D5
:04014B00FFFB0B9318
:04014C00015CDE6311
:04014D00419A8AB396
:04014E000004851311
:04014F00000A861309
:040150000300059310
:04015100068040EFF5
:04015200015484B31D
:04015300012406334A
:040154000004871309
:04015500001005137E
:040156000017071374
:0401570000064583D6
:0401580040E507B3C4
:04015900012787B340
:04015A00FEB70FA33A
:04015B0000F487B372
:04015C00FFF6061391
:04015D00FEF042E38B
:04015E00013484B331
:04015F000360546382
:04016000FFFBC79347
:0401610041F7D793F8
:0401620000FBF43377
:04016300001404136D
:0401640000048513FB
:040165000004061379
:0401660002000593FB
:04016700010040EF64
:04016800008484B3D8
:0401690009C1208325
:04016A0009812403E0
:04016B0000048513F4
:04016C000901290359
:04016D00094124839D
:04016E0008C1298318
:04016F0008812A03D6
:0401700008412A8395
:0401710008012B0353
:0401720007C12B8313
:0401730007812C03D1
:0401740007412C8390
:0401750007012D034E
:0401760006C12D830E
:040177000A01011365
:04017800000080679C
:04017900FFE7F79312
:04017A00000D0E1353
:04017B000027F61350
:04017C0002000C135E
:04017D000207FD93E5
:04017E0000060A630A
:04017F00E49FF06F9A
:04018000000108B7BB
:040181003F08889318
:04018200E19FF06F9A
:040183000000031362
:04018400E55FF06FD4
:0401850040B005B3CE
:04018600FFF6869367
:0401870002D003138C
:04018800E40D94E30B
:040189000000091356
:04018A0001C1041398
:04018B000080006F81
:04018C0000098913CA
:04018D000345F7B37C
:04018E0000190993B8
:04018F0001340833FC
:0401900000058513CE
:0401910000098C9342
:0401920000F887B337
:040193000007C78317
:040194000345D5B397
:04019500FEF80FA3BE
:04019600FD457CE3C4
:04019700E3DFF06F43
:04019800FFF6869355
:0401990002B003139A
:04019A00DFDFF06F44
:04019B0003000793C3
:04019C0000F48023C8
:04019D00078007933D
:04019E0000F480A346
:04019F000024849321
:0401A000E79FF06F76
:0401A100FFE686935C
:0401A200DF5FF06FBC
:0401A30003000793BB
:0401A40000F48023C0
:0401A500001484932B
:0401A600E61FF06FF1
:0401A700000B8B13AB
:0401A800FFFB8B933B
:0401A900E8DFF06F2C
:0401AA00FFEB0793CD
:0401AB00000B8B13A7
:0401AC0000078B932A
:0401AD00E25FF06FAE
:0401AE004CC0106FC2
:0401AF00AD0101138A
:0401B0004F71262342
:0401B10050112623A0
:0401B2005081242331
:0401B3005091222322
:0401B4005121202392
:0401B5004F312E2375
:0401B6004F412C2366
:0401B7004F512A2357
:0401B8004F61282348
:0401B9004F8124232B
:0401BA004F9122231C
:0401BB004FA120230D
:0401BC004DB12E23F0
:0401BD0050B12A23F0
:0401BE0050C12C23DD
:0401BF0050D12E23CA
:0401C00052E12023C5
:0401C10052F12223B2
:0401C200530124239E
:0401C300531126238B
:0401C4000005478368
:0401C50051410B9306
:0401C600037122237C
:0401C70038078AE388
:0401C8000D01091309
:0401C90000010C37EE
:0401CA0000010A37EF
:0401CB00000109B76F
:0401CC000005041313
:0401CD0000090B1307
:0401CE001E4C0C13A4
:0401CF00228A0A1363
:0401D0003F098993C7
:0401D10000010AB768
:0401D20002500713BD
:0401D30008E7806356
:0401D40000FB002309
:0401D5000014478348
:0401D600001B0B13EC
:0401D70000140413F9
:0401D800FE0794E3A7
:0401D900000B0023F4
:0401DA000D014503CB
:0401DB0034050CE3F8
:0401DC0000100413F8
:0401DD004124043382
:0401DE0040C010EF1E
:0401DF00008907B3D9
:0401E00000190913E6
:0401E10000094503C9
:0401E200FE0518E31B
:0401E30050C1208364
:0401E400508124031F
:0401E50050412483DE
:0401E6005001290398
:0401E7004FC1298358
:0401E8004F812A0316
:0401E9004F412A83D5
:0401EA004F012B0393
:0401EB004EC12B8353
:0401EC004E812C0311
:0401ED004E412C83D0
:0401EE004E012D038E
:0401EF004DC12D834E
:0401F000000785136C
:0401F10053010113A2
:0401F2000000806722
:0401F300001445832C
:0401F400010006936D
:0401F500000007936C
:0401F600FE05871368
:0401F7000FF7771374
:0401F8000014049358
:0401F90002E6E863CF
:0401FA0000271713B0
:0401FB00018707333E
:0401FC0000072703CE
:0401FD000007006790
:0401FE000017E7936C
:0401FF000004841361
:04020000001445831E
:04020100001404934E
:04020200FE0587135B
:040203000FF7771367
:04020400FCE6FCE335
:04020500FD05871359
:040206000FF7771364
:0402070000900693CA
:040208000CE6FA63A3
:0402090002A0071335
:04020A00FFF00D9361
:04020B000EE58E630B
:04020C0002E00713F2
:04020D00FFF00C935F
:04020E0008E5886314
:04020F000DF5F713DF
:0402100004C006938D
:0402110004D70A63A1
:04021200FBF587135E
:040213000FF7771357
:0402140003700693DA
:0402150014E6EAE31E
:040216000027171393
:040217000147073361
:0402180000072703B1
:040219000007006773
:04021A000107E7935E
:04021B000004841344
:04021C00F91FF06F67
:04021D000047E7931C
:04021E000004841341
:04021F00F85FF06F25
:040220000207E79357
:04022100000484133E
:04022200F79FF06FE3
:040223000087E793D6
:04022400000484133B
:04022500F6DFF06FA1
:040226000014C603F7
:0402270003700693C7
:0402280000148D131E
:04022900FBF60713C6
:04022A000FF7771340
:04022B0010E6E2E314
:04022C00000106B710
:04022D00002717137C
:04022E0030868693FD
:04022F0000D70733BA
:040230000007270399
:04023100000700675B
:040232000014C5836C
:04023300009006131E
:040234000014869399
:04023500FD05871329
:040236000FF7771334
:040237000AE67463FC
:0402380002A0071306
:040239000CE58A63E3
:04023A0000068493A3
:04023B0000000C9320
:04023C00F4DFF06F8C
:04023D0000000D931D
:04023E000090061313
:04023F00002D969365
:0402400001B686B3CA
:04024100001484938E
:040242000016969379
:0402430000B686B3C8
:040244000004C5836A
:04024500FD068D9392
:04024600FD05871318
:040247000FF7771323
:04024800FCE67EE36F
:04024900F0DFF06F83
:04024A00000BAD8375
:04024B0000240493F4
:04024C0000244583C2
:04024D00004B8B9344
:04024E00EE0DDCE3F2
:04024F0041B00DB3FA
:040250000107E79328
:04025100EEDFF06F7D
:0402520000048D1304
:040253000407E79322
:04025400010006138C
:04025500004B8713C0
:04025600000BA58371
:0402570000070B93FE
:04025800000C8713FC
:04025900000D86937B
:04025A00000B05137D
:04025B00A65FF0EFBB
:04025C0000050B137B
:04025D00001D4783B6
:04025E00001D041368
:04025F00DC0796E33F
:04026000DE5FF06FFE
:0402610000000C93FA
:04026200002C9713C2
:0402630001970733C5
:040264000016869367
:040265000017171354
:0402660000B70733A3
:040267000006C58345
:04026800FD070C93EF
:04026900FD058713F5
:04026A000FF7771300
:04026B00FCE67EE34C
:04026C000006849371
:04026D00E89FF06FA7
:04026E00000BAC8352
:04026F000024C5831F
:04027000004B8B9321
:04027100FFFCC713B4
:0402720041F75713E6
:0402730000ECFCB3EC
:04027400002484934B
:04027500E69FF06FA1
:0402760000048D13E0
:0402770000A00613CA
:04027800F75FF06FCD
:0402790000048D13DD
:04027A00000BA403CE
:04027B00004B8B9316
:04027C001E0404E375
:04027D00000447032F
:04027E00220702E36E
:04027F00220C80E3EA
:04028000000407135C
:0402810000C0006F4A
:04028200419706B3E7
:040283000086886306
:040284000017071345
:0402850000074683A5
:04028600FE0698E3F5
:040287000107F793E1
:04028800408704B3F4
:040289007A07866307
:04028A000A90506323
:04028B00004B07130A
:04028C000044069391
:04028D0000E437331F
:04028E0000DB36B3A8
:04028F00FFF487935E
:0402900000174713F9
:040291000016C693FA
:040292000097B79387
:0402930000D76733F6
:040294000017C793F5
:0402950000E7F7B3D4
:0402960024078CE3CA
:04029700008B67B3BE
:040298000037F793A1
:04029900240796E3BD
:04029A00FFC4F61394
:04029B00000B0793BA
:04029C000004071340
:04029D0001660633BD
:04029E0000072683AC
:04029F0000478793FA
:0402A00000470713F9
:0402A100FED7AE23B3
:0402A200FEF618E369
:0402A300FFC4F7930A
:0402A40000F404332B
:0402A50000FB06B3A1
:0402A60002978663D2
:0402A7000004460306
:0402A80000178713A1
:0402A90000C68023E8
:0402AA0000975E63F8
:0402AB0000144703F1
:0402AC00002787930D
:0402AD0000E680A344
:0402AE000097D6637C
:0402AF00002447835D
:0402B00000F68123B0
:0402B100009B0B3370
:0402B200001D041314
:0402B30001B4DE6351
:0402B400409D84B332
:0402B500000B051322
:0402B60000048613A7
:0402B70002000593A9
:0402B8002CD030EF27
:0402B900009B0B3368
:0402BA00001D478359
:0402BB00C4079EE3F3
:0402BC00C75FF06FB9
:0402BD0000048D1399
:0402BE0000800613A3
:0402BF00E59FF06F58
:0402C00000048D1396
:0402C1000107F793A7
:0402C200FFFD8D931C
:0402C3000C078AE3B7
:0402C400000BA78301
:0402C500001B071300
:0402C600004B8B93CB
:0402C70000FB002315
:0402C800001D0413FE
:0402C90011B05EE32F
:0402CA00000D86138A
:0402CB000200059395
:0402CC00000705130F
:0402CD00279030EF57
:0402CE00001D478345
:0402CF0001B50B3337
:0402D000C00794E3EC
:0402D100C21FF06FE9
:0402D20000048D1384
:0402D300007B8B938E
:0402D4000107F69395
:0402D500FF8BF71391
:0402D60000D1282308
:0402D70000870B93FE
:0402D80000072E03EA
:0402D90000472703B0
:0402DA0078068463BB
:0402DB00FFE7F793AF
:0402DC000027E49380
:0402DD000200079381
:0402DE0000D1262302
:0402DF0000F12E23D9
:0402E000000E0513F4
:0402E100000705937A
:0402E20000000613FF
:0402E300000006937E
:0402E40001C12C2305
:0402E50000E12A23E7
:0402E60006C030EF2F
:0402E70001412703A7
:0402E80001812E035F
:0402E9000E054CE3CF
:0402EA000044F79342
:0402EB00060792E38D
:0402EC000084F79300
:0402ED0000000413F6
:0402EE00000786631C
:0402EF00FFFD8D93EF
:0402F00002000413F1
:0402F100FFF0079380
:0402F20000FC946315
:0402F30000600C9308
:0402F4000007059367
:0402F5000801079362
:0402F60002C1071327
:0402F700000E0513DD
:0402F80002810693E6
:0402F900000C86135C
:0402FA0076D000EFCB
:0402FB0002C1278392
:0402FC0003010713E0
:0402FD00000788630B
:0402FE0002D0079390
:0402FF0002F10823DD
:0403000003110713CB
:04030100000546832A
:04030200040688E382
:0403030002812E0342
:040304001BC056E3E1
:040305000015458317
:0403060000D70023F9
:0403070000170613C2
:040308000025069333
:0403090002E00E936D
:04030A00FFF54513A3
:04030B00000607934E
:04030C0002059063F3
:04030D000400006F79
:04030E0000B6002312
:04030F00FFF6C583AD
:040310000016079339
:0403110002058863F6
:0403120000060713C7
:040313000007861346
:0403140000D507B356
:0403150000168693B5
:04031600FFC790E3AA
:0403170000B7012307
:04031800FFF6C583A4
:0403190001D700A365
:04031A00002706139F
:04031B00003707930D
:04031C00FC059CE35D
:04031D000007802332
:04031E000204F4934E
:04031F00000486E36D
:04032000030147830B
:04032100040C8EE357
:0403220003010C9334
:040323000A0786E35C
:04032400000C8793AF
:040325001301069327
:040326000080006FE4
:040327007ED78A6390
:0403280000178793A0
:040329000007C703FF
:04032A00FE071AE3CD
:04032B00419784B3BF
:04032C00409D8DB3B0
:04032D0000C1278361
:04032E00FFFD8C93B0
:04032F0002079263CC
:040330000DB05CE3CD
:04033100000D861322
:04033200000B0513A4
:04033300020005932C
:0403340001BB0B33CB
:040335000D9030EF08
:04033600FFE00C9345
:04033700FFF00D9333
:040338000004066354
:04033900008B002312
:04033A00001B0B1386
:04033B000101278312
:04033C0002079C63B5
:04033D000BB05AE3C4
:04033E00FFFCC813E5
:04033F0041F8581316
:04034000010CFDB3FC
:0403410001C125834E
:04034200001D841303
:04034300000B051393
:040344000004061398
:04034500099030EFFC
:04034600FFFC87939E
:0403470041B78DB37A
:04034800008B0B33E8
:04034900FFFD8C9395
:04034A0000905C6360
:04034B00000B05138B
:04034C000004861310
:04034D000301059310
:04034E00638030EFA9
:04034F00009B0B33D1
:04035000C3B05AE3F9
:04035100FFFCC413D6
:0403520041F454130B
:04035300008CF7B370
:0403540000178413F7
:04035500000B051381
:040356000004061386
:040357000200059308
:0403580004D030EFAE
:04035900008B0B33D7
:04035A00C0DFF06FA1
:04035B0000048D13FA
:04035C00FFF0071394
:04035D0000ED9663B6
:04035E000017E7930A
:04035F0000800D937A
:04036000000BA58366
:04036100000C8713F2
:04036200004B8B932E
:04036300000D869370
:04036400010006137B
:04036500BD5FF06F19
:0403660006C00713B3
:04036700000BA6835E
:040368000407E7930C
:04036900004B8B9327
:04036A0056E594635D
:04036B00000107374F
:04036C0041870713AB
:04036D000006C603BD
:04036E0003A0059350
:04036F0008B10123AD
:0403700000465513DB
:0403710000F6761309
:0403720000A70533A8
:0403730000C7063386
:040374000005450338
:040375000006460335
:040376000107F793F1
:0403770008A10023B6
:0403780008C100A315
:040379000016C603A1
:04037A0008B102A321
:04037B00FFFD8413EB
:04037C0000465513CF
:04037D0000F67613FD
:04037E0000A705339C
:04037F0000C706337A
:04038000000545032C
:040381000006460329
:0403820008A101A32A
:0403830008C1022388
:040384000026C60386
:0403850008B1042394
:0403860000465513C5
:0403870000F67613F3
:0403880000A7053392
:0403890000C7063370
:04038A000005450322
:04038B00000646031F
:04038C0008A103239E
:04038D0008C103A3FD
:04038E000036C6036C
:04038F0008B105A309
:0403900000465513BB
:0403910000F67613E9
:0403920000A7053388
:0403930000C7063366
:040394000006460316
:040395000005450317
:0403960008C1052372
:0403970008A104A312
:040398000046C60352
:0403990008B107237D
:04039A000046559331
:04039B0000F67613DF
:04039C0000B705B3EE
:04039D0000C706335C
:04039E00000646030C
:04039F000005C5830D
:0403A00008C106A3E7
:0403A10008B1062376
:0403A2000056C683B8
:0403A3000046D61327
:0403A40000C7063355
:0403A5000006460305
:0403A60000F6F693D4
:0403A70000D7073341
:0403A80008C107A3DE
:0403A90000074703FF
:0403AA0008E108233B
:0403AB003C07906318
:0403AC0001100793A2
:0403AD003BB7D66321
:0403AE00FEFD8413B9
:0403AF00000406132D
:0403B00002000593AF
:0403B100000B051325
:0403B2006E4030EF7A
:0403B300011006131C
:0403B40008010593A4
:0403B500008B053381
:0403B600498030EF5B
:0403B70001BB07334C
:0403B8000024C783D3
:0403B9000024841385
:0403BA0000070B131A
:0403BB0084079EE332
:0403BC00875FF06FF8
:0403BD0006C007135C
:0403BE00000BA68307
:0403BF00004B8B93D1
:0403C00040E5986319
:0403C1000009871395
:0403C200EADFF06F0F
:0403C30006C00693D7
:0403C4000027E79394
:0403C500004B87134F
:0403C60000A006137A
:0403C700A2D58EE34A
:0403C8002680006F1C
:0403C90000048D138C
:0403CA000100061315
:0403CB00A29FF06F8E
:0403CC00000BA683F9
:0403CD00004B8B93C3
:0403CE000006C7035B
:0403CF003007086388
:0403D00006300613DA
:0403D1003CE65A6349
:0403D20006400513C9
:0403D30002A76333E7
:0403D40000A00893EA
:0403D50000400613CB
:0403D60000300413DC
:0403D700002005936A
:0403D80002A74733FE
:0403D9000313453392
:0403DA0000E987337C
:0403DB0000074703CD
:0403DC0008E1002311
:0403DD0000A98733B9
:0403DE0000074503CC
:0403DF00031367336A
:0403E00008A100A3CD
:0403E10000E9873375
:0403E20000074503C8
:0403E3004D010713AE
:0403E40000B7073324
:0403E500BAA7082388
:0403E6004D010713AB
:0403E700008705B3D3
:0403E80002E0071315
:0403E900BAE58823C6
:0403EA000016C7032F
:0403EB002807046378
:0403EC0006300513BF
:0403ED003EE55A632C
:0403EE0006400513AD
:0403EF0000A00893CF
:0403F0004D010813A0
:0403F10000C80E33FF
:0403F20000340613BA
:0403F30002A76333C7
:0403F40002A74733E2
:0403F5000313453376
:0403F60000E9873360
:0403F70000074703B1
:0403F800BAEE08232E
:0403F90000A987339D
:0403FA0000074503B0
:0403FB00031367334E
:0403FC00BAA58923F2
:0403FD0000E9873359
:0403FE00000745832C
:0403FF004D01071392
:0404000000C70733F7
:0404010000160413CA
:04040200BAB708235A
:040403004D0107138D
:04040400008705B3B5
:0404050002E00713F7
:04040600BAE58823A8
:040407000026C70301
:0404080000140613C3
:040409001E070C635B
:04040A0006300513A0
:04040B0034E556631B
:04040C00064005138E
:04040D0000A00893B0
:04040E004D01081381
:04040F0000C80E33E0
:04041000003406139B
:0404110002A76333A8
:0404120002A74733C3
:040413000313453357
:0404140000E9873341
:040415000007470392
:04041600BAEE08230F
:0404170000A987337E
:040418000007450391
:04041900031367332F
:04041A00BAA58923D3
:04041B0000E987333A
:04041C00000745830D
:04041D004D01071373
:04041E0000C70733D9
:04041F0000160413AC
:04042000BAB708233C
:040421004D0107136F
:040422000087063316
:0404230002E00713D9
:04042400BAE6082309
:040425000036C703D3
:040426000014069325
:04042700160704634D
:040428000630059302
:040429002AE5D2638B
:04042A0006400593F0
:04042B0000A0051315
:04042C004D01081363
:04042D0000D80333BD
:04042E0000340693FD
:04042F0002B768B3F5
:0404300002B7473395
:0404310002A8C5B3A5
:0404320000E9873323
:040433000007470374
:04043400BAE30823FC
:0404350000B9873350
:0404360000074583F3
:0404370002A8E733FD
:04043800BAB6092324
:0404390000E987331C
:04043A00000746036E
:04043B004D01071355
:04043C0000D70733AB
:04043D00001684130E
:04043E00BAC708230E
:04043F000107F79327
:04044000FFFD8C939D
:0404410002079663B5
:0404420049B4506306
:04044300408D8D3328
:04044400000B051391
:04044500000D06138D
:040446000200059318
:04044700490030EF49
:0404480041B406B302
:0404490001968DB3D8
:04044A0001AB0B33C4
:04044B00FFFD8C9392
:04044C00000B051389
:04044D00000406138E
:04044E000801059309
:04044F00234030EF27
:04045000008B0733E3
:0404510000070B1382
:0404520003B452633A
:04045300020006138A
:0404540000100693FB
:04045500001B0B136A
:04045600416687B3C1
:04045700019787B3CF
:04045800FECB0FA325
:0404590000F707B3EE
:04045A00FEF446E383
:04045B000014C7833F
:04045C0000148413F1
:04045D00DC079A63BB
:04045E00DECFF06F8E
:04045F000027E793F8
:04046000004B8713B3
:0404610000048D13F3
:04046200000BA58363
:0404630000A00613DC
:0404640000070B93EF
:04046500FCCFF06F69
:04046600000BA6835E
:040467000407E7930C
:04046800004B8B9327
:04046900D95FF06FF8
:04046A0000058613F0
:04046B0000048D13E9
:04046C0002500793A0
:04046D00001B071356
:04046E0012F600631F
:04046F0000FB00236B
:04047000000D460332
:0404710010061463FA
:0404720000070B1361
:04047300D98FF06FBE
:04047400FFFD87936E
:0404750027B4DE6367
:04047600409D8CB366
:04047700000B05135E
:04047800000C8613DB
:0404790002000593E5
:04047A0000F1262344
:04047B003C0030EF22
:04047C0000C1278311
:04047D0041B486B34D
:04047E00019B0B33A0
:04047F0000F68DB343
:04048000829FF06FF8
:040481004D0107130F
:0404820000D7073365
:0404830003000693D9
:040484000024041339
:04048500BAD70823B7
:04048600EE5FF06FC6
:040487004D01071309
:0404880000C707336F
:040489000300061353
:04048A000024041333
:04048B00BAC70823C1
:04048C00E55FF06FC9
:04048D004D01071303
:04048E0000C7073369
:04048F00030006134D
:04049000002404132D
:04049100BAC70823BB
:04049200DC5FF06FCC
:040493000300071348
:0404940008E1002358
:04049500002006132A
:04049600001004133B
:04049700D3DFF06F50
:04049800FFED87935A
:0404990000040D93BB
:04049A0000078413C0
:04049B000110061333
:04049C0008010593BB
:04049D00000B051338
:04049E000F8030EFAC
:04049F0001100C93A9
:0404A000011B071322
:0404A100C5BCDEE315
:0404A20002000593BC
:0404A300012006131B
:0404A40001100693AA
:0404A5000017071322
:0404A60040E607B372
:0404A70000FB07B39C
:0404A800FEB70FA3E9
:0404A900008787B38E
:0404AA00FEF6C6E3B1
:0404AB00C35FF06FCC
:0404AC000D01091322
:0404AD0000090B1324
:0404AE00000B00231C
:0404AF000D014503F3
:0404B000CA051863FE
:0404B10000000793AD
:0404B200CC4FF06FCC
:0404B300002B079380
:0404B40000070B131F
:0404B50000078713A2
:0404B60000CB002354
:0404B700001D47835A
:0404B800001D04130C
:0404B90000070B131A
:0404BA00C60790637E
:0404BB00C78FF06F88
:0404BC000017F6939C
:0404BD000027E4939D
:0404BE000117F79398
:0404BF0000F12623FF
:0404C00030068E6311
:0404C100030007939A
:0404C20000F12E23F4
:0404C300875FF06FF0
:0404C400000D049390
:0404C500C25FF06FB3
:0404C6000090061389
:0404C7000EE6526388
:0404C80000A00893F5
:0404C900031745339D
:0404CA0000300613E5
:0404CB0000200413F6
:0404CC000010059384
:0404CD0000A98533CA
:0404CE0000054503DD
:0404CF000317673375
:0404D00008A100235C
:0404D100C41FF06FE5
:0404D200009006137D
:0404D300D8E65CE328
:0404D40000A00593EC
:0404D50002B74633F1
:0404D6004D010513BC
:0404D70000D5053314
:0404D8000024069363
:0404D90000C986339D
:0404DA0000064603CF
:0404DB0002B76733CA
:0404DC00BAC5082372
:0404DD00D71FF06FC6
:0404DE0000900593F2
:0404DF00CEE5D8E3AB
:0404E00000A0051360
:0404E10002A745B376
:0404E2004D010813AD
:0404E30000C808B392
:0404E40000240613D7
:0404E50000B985B322
:0404E6000005C583C5
:0404E70002A76733CE
:0404E800BAB88823F3
:0404E900CC9FF06F45
:0404EA0000900593E6
:0404EB00C4E5D4E3AD
:0404EC0000A0051354
:0404ED0002A745B36A
:0404EE004D010813A1
:0404EF0000C808B386
:0404F00000240613CB
:0404F10000B985B316
:0404F2000005C583B9
:0404F30002A76733C2
:0404F400BAB88823E7
:0404F500C21FF06FC3
:0404F6003E8A8413A3
:0404F700E20FF06FB1
:0404F80005B0566392
:0404F900000D861359
:0404FA00000B0513DB
:0404FB000200059363
:0404FC0001BB0B3302
:0404FD001B8030EF41
:0404FE00FFF00D936B
:0404FF00F14FF06F5A
:0405000000200613BE
:0405010000100413CF
:04050200000005935D
:04050300B79FF06F3F
:04050400FFFD8D93D7
:0405050002B0041329
:04050600FACFF06FC9
:040507000107F49361
:04050800DA0488E3A6
:040509000000049357
:04050A00EA0FF06F95
:04050B00000BA783B7
:04050C00001B0713B6
:04050D00004B8B9381
:04050E0000FB0023CB
:04050F00001D0413B4
:04051000001D478300
:0405110000070B13C1
:04051200B00790633B
:04051300B18FF06F45
:0405140000078D93BC
:04051500DD4FF06F57
:040516000300079344
:0405170000F70023C6
:04051800060C8863E2
:04051900002707931D
:04051A0002E0069362
:04051B0000D700A362
:04051C00000C861336
:04051D00030005933F
:04051E00000785133A
:04051F00130030EFA6
:040520000195073307
:0405210000070023AC
:040522000301478307
:04052300FFCFF06FA7
:04052400F00D8D93B6
:04052500100004932B
:0405260081DFF06F12
:04052700800007B792
:0405280000E7C733EE
:04052900FFFD8D93B2
:04052A0002D00413E4
:04052B00F18FF06FED
:04052C00009406B37E
:04052D00000B079325
:04052E00001404139E
:04052F00FFF447038B
:040530000017879396
:04053100FEE78FA3AF
:04053200FED418E3F8
:04053300DF8FF06FF7
:04053400000700A319
:040535000204F49335
:04053600FA0488E358
:0405370003014783F2
:0405380012078463BF
:0405390002E00713C2
:04053A0012E78663DB
:04053B0003010C9319
:04053C000DF7F7932D
:04053D00045007134C
:04053E00000C849396
:04053F0004E78263E8
:0405400002E00713BB
:0405410004500693C9
:040542000100006F45
:04054300F8E78263F0
:040544000DF7F79325
:0405450002D78663F0
:040546000014849386
:040547000004C78362
:04054800FE0796E331
:0405490002E0079332
:04054A0000F4802316
:04054B0003014783DE
:04054C00000480A384
:04054D00F4079E63AE
:04054E000000049312
:04054F00F78FF06FC3
:04055000100486937A
:040551000004879388
:040552000080006FB6
:0405530006D78463E0
:040554000017879372
:040555000007C703D1
:04055600FE071AE39F
:040557004097863310
:0405580000C0586324
:040559000014859372
:04055A0000248513E1
:04055B00721020EF0B
:04055C0002E007931F
:04055D0000F4802303
:04055E0003014783CB
:04055F00F0079A63A4
:040560000000049300
:04056100F30FF06F35
:04056200FFED87938F
:04056300000C8D9368
:0405640000078C936D
:04056500B9DFF06F9B
:04056600FFED87130B
:04056700000C8D9364
:0405680000070C93E9
:04056900F3CFF06F6D
:04056A00000C8D9361
:04056B00FFFC8C9372
:04056C00F78FF06FA6
:04056D001000061361
:04056E00FADFF06F51
:04056F0003000793EB
:0405700000F700236D
:0405710002E007930A
:0405720000F700A3EB
:0405730041C00EB3C2
:0405740000270793C2
:04057500000E0E6303
:0405760003000593E6
:04057700001787934F
:04057800FFE7861300
:04057900FEB78FA397
:04057A0040E606331E
:04057B00FFD648E37C
:04057C00001505134E
:04057D000017879349
:04057E00FED78FA372
:04057F0000054683AA
:04058000FE0698E3F8
:04058100E70FF06F21
:0405820003010C93D2
:04058300000C849351
:04058400F15FF06FC4
:0405850003010C93CF
:04058600E78FF06F9C
:0405870002000793D4
:0405880000F12E232D
:04058900D5CFF06F6B
:04058A00F90101135F
:04058B00068124239E
:04058C00069122238F
:04058D0007212023FF
:04058E0005312E23E2
:04058F00058124239B
:040590000611262307
:0405910005412C23D1
:0405920005512A23C2
:0405930005612823B3
:0405940005712623A4
:040595000591222387
:0405960005A1202378
:0405970003B12E235B
:0405980004E00893E0
:0405990001012E230B
:04059A00000509133C
:04059B0000058413C0
:04059C0000068C13B6
:04059D0000070993B7
:04059E00000784933B
:04059F002EC8DA6325
:0405A00004E00793D9
:0405A1000009051335
:0405A20000040593B9
:0405A300000006133B
:0405A40000000693BA
:0405A50000F12C2312
:0405A60056C020EF2C
:0405A7002E054E636C
:0405A8000009A02383
:0405A9000201061332
:0405AA00000905132C
:0405AB0000040593B0
:0405AC007D9020EF2F
:0405AD00020128031C
:0405AE00024128835B
:0405AF0000050993A7
:0405B00000058A13A5
:0405B100000006132D
:0405B20000000693AC
:0405B3000008051324
:0405B4000008859323
:0405B50005048A931C
:0405B60001012023FC
:0405B70001112223E9
:0405B8003B4020EFB5
:0405B9002C050463A6
:0405BA0000010DB778
:0405BB00000107B77D
:0405BC0044C7A80385
:0405BD00444DAC837A
:0405BE00440DAD0338
:0405BF004487A78343
:0405C00001012623EC
:0405C100000A891390
:0405C20000F12423FD
:0405C300000D0D9387
:0405C4000191282356
:0405C50005000B938F
:0405C6000001280305
:0405C7000041288344
:0405C8000080006F40
:0405C900000B091307
:0405CA00000805130D
:0405CB00000885930C
:0405CC00000C869306
:0405CD00000D061304
:0405CE00491010EFD1
:0405CF00020106130C
:0405D000749020EF14
:0405D100008126037C
:0405D20000C12683BB
:0405D30002A124233A
:0405D40002B1262327
:0405D5004B4010EF98
:0405D6000101268376
:0405D700000D86137A
:0405D800FFF90B1309
:0405D900584020EF77
:0405DA0033D020EF0B
:0405DB0002012803EE
:0405DC00024128832D
:0405DD0003050513FA
:0405DE00FEA90FA3C0
:0405DF0000088593F8
:0405E00000080513F7
:0405E10000000613FD
:0405E200000006937C
:0405E30001012023CF
:0405E40001112223BC
:0405E500416B8433AF
:0405E60001612A2362
:0405E7002F8020EF52
:0405E8000094043344
:0405E90000012803E2
:0405EA000041288321
:0405EB00F6051CE312
:0405EC00375B7E6398
:0405ED0000448693AD
:0405EE0000390913B4
:0405EF0000DB36B344
:0405F0000124B933F6
:0405F1000164E73387
:0405F2000019491390
:0405F3000016C69395
:0405F4000037771342
:0405F5000126E6B342
:0405F600001739139E
:0405F70000D979337B
:0405F8003209086359
:0405F90004F487136C
:0405FA00416707331B
:0405FB00009737131B
:0405FC00320710634F
:0405FD00416A853397
:0405FE00FFC575932D
:0405FF00016585B35A
:0406000000048693D9
:04060100000B0713D0
:0406020000072603C4
:040603000046869394
:040604000047071391
:04060500FEC6AE235C
:04060600FEB718E340
:04060700FFC57713A1
:0406080000E486B3D1
:0406090000EB07B348
:04060A0002E506639C
:04060B000007C6031B
:04060C000017871339
:04060D0000C6802380
:04060E0001577E63AF
:04060F000017C60307
:040610000027871325
:0406110000C680A3FC
:0406120001577663B3
:040613000027C78372
:0406140000F6812348
:0406150001412783F5
:0406160040FA8933EA
:0406170001248933FE
:0406180001812783B2
:0406190000F48CB3AA
:04061A0001C1278370
:04061B0000079463DD
:04061C00008C8CB30F
:04061D00008C20230A
:04061E00229CE463D3
:04061F00052CEE6355
:0406200000010DB711
:0406210005597A639A
:04062200440DAB03D5
:04062300444DAB8314
:040624000080006FE3
:04062500052A8263BD
:04062600000B8693AC
:04062700000985132E
:04062800000A05932C
:04062900000B0613A9
:04062A00440020EF79
:04062B00028106132F
:04062C005D9020EFCE
:04062D000005099328
:04062E0000058A1326
:04062F00028125031C
:0406300002C125835B
:040631000019091390
:040632001DD020EFC8
:0406330003050513A3
:04063400FEA90FA369
:04063500FD2CF0E3C5
:040636001D5CF863EC
:04063700000CC703E9
:0406380001C1278352
:04063900005707134C
:04063A000FF777132C
:04063B0000EC80232C
:04063C001C079063A4
:04063D00039005130E
:04063E00000C879392
:04063F00030006931B
:04064000031005930B
:040641000390061309
:0406420002E57263F8
:0406430000D7802339
:0406440016F4F46351
:04064500FFF7C703F1
:04064600FFF78793A0
:04064700001707137E
:040648000FF777131E
:0406490000E7802323
:04064A00FEE662E383
:04064B00000C8023FC
:04064C0006C1208340
:04064D0006812403FB
:04064E00000485130C
:04064F000601290374
:0406500006412483B8
:0406510005C1298333
:0406520005812A03F1
:0406530005412A83B0
:0406540005012B036E
:0406550004C12B832E
:0406560004812C03EC
:0406570004412C83AB
:0406580004012D0369
:0406590003C12D8329
:04065A000701011380
:04065B0000008067B4
:04065C00FFF64793CB
:04065D0041F7D793F7
:04065E0000F677B378
:04065F000009051376
:0406600000040593FA
:04066100000006137C
:0406620000000693FB
:0406630000F12C2353
:04066400274020EF1C
:04066500D00556E383
:0406660000100793E6
:0406670000F9A023D3
:04066800800007B750
:040669000087C4330F
:04066A00CFDFF06F7F
:04066B0000098513EA
:04066C00000A0593E8
:04066D000000061370
:04066E0000000693EF
:04066F00164020EF22
:040670000AA0566323
:0406710000010DB7C0
:04067200440DA6038A
:04067300444DA683C9
:0406740000098513E1
:04067500000A0593DF
:04067600310020EF40
:04067700000107B7C0
:040678004547AD0342
:040679004507AB0383
:04067A0000050C93D8
:04067B00000D0693D5
:04067C00000B061356
:04067D0000058B9356
:04067E0002A124238E
:04067F0002B126237B
:04068000204020EF07
:04068100000004135E
:0406820012055263A8
:04068300440DA90376
:04068400444DA983B5
:04068500000D0A1347
:0406860000C0006F41
:04068700000D8C9343
:04068800000D0B93C3
:04068900000906134B
:04068A00000986934A
:04068B00000C8513C7
:04068C00000B859347
:04068D002B4020EFEF
:04068E00000B061344
:04068F00000A0693C4
:0406900000050D93C1
:0406910000058D13C0
:04069200FFF404135A
:040693001B8020EFB9
:04069400FC0546E338
:0406950003B1242366
:0406960003A1262373
:0406970000048913BF
:04069800000C899336
:04069900000B8A13B5
:04069A00DF9FF06F7F
:04069B0000048913BB
:04069C000000041343
:04069D00DEDFF06F3D
:04069E0000B78023FE
:04069F00000C270321
:0406A0000017071325
:0406A10000EC202326
:0406A2000194F46368
:0406A30000DC8023D4
:0406A4000007C70381
:0406A500001C8C9316
:0406A600E6E66AE337
:0406A700E91FF06FE8
:0406A80000048023A7
:0406A900E8DFF06F27
:0406AA00040487A31A
:0406AB00E85FF06FA5
:0406AC00039005931F
:0406AD00000C879323
:0406AE0003000693AC
:0406AF00039006139B
:0406B000031005131B
:0406B100E6E5F4E3A3
:0406B20000D78023CA
:0406B30002F4E26308
:0406B40000A78023F8
:0406B500000C27030B
:0406B600001707130F
:0406B70000EC202310
:0406B8000007C7036D
:0406B900E4E674E31C
:0406BA0000D78023C2
:0406BB00FEF4F2E374
:0406BC00FFF7C7037A
:0406BD00FFF785932B
:0406BE000017071307
:0406BF000FF77713A7
:0406C000FEE78FA31F
:0406C100E2E674E316
:0406C2000005879315
:0406C300FBDFF06FFA
:0406C4000004871394
:0406C500001B0B13F8
:0406C600FFFB46836D
:0406C70000170713FE
:0406C800FED70FA3A7
:0406C900FF6A98E349
:0406CA00D2DFF06F1C
:0406CB00000489138B
:0406CC00D31FF06FD9
:0406CD0000100813FE
:0406CE0081C18793CC
:0406CF00AEDFF06F3B
:0406D00000100813FB
:0406D100AE5FF06FB9
:0406D2000000081309
:0406D30081C18793C7
:0406D400AD9FF06F77
:0406D5000000081306
:0406D600AD1FF06FF5
:0406D70002FAF7B775
:0406D80008078793F5
:0406D90002A7D5336C
:0406DA00001007B74E
:0406DB0086F1A623DB
:0406DC0001300713CF
:0406DD0000E7A62369
:0406DE00FFF505130C
:0406DF0000A7A823A5
:0406E000000080672F
:0406E100008007B7D7
:0406E20000A7A023AA
:0406E30086C1A70322
:0406E40000A7222326
:0406E50000872783E0
:0406E6000087F793FF
:0406E700FE079CE38B
:0406E80000000513F6
:0406E9000000806726
:0406EA0086C1A7839B
:0406EB000087A503DC
:0406EC00001575136D
:0406ED000000806722
:0406EE0086C1A70317
:0406EF0000872783D6
:0406F0000017F79365
:0406F1000007886313
:0406F20000072503D5
:0406F3000FF5751377
:0406F400000080671B
:0406F500FFF00513FA
:0406F6000000806719
:0406F7000005478330
:0406F800020788630A
:0406F90086C1A7030C
:0406FA00001506934E
:0406FB00008006373E
:0406FC0000F62023C1
:0406FD0000F72223BD
:0406FE0000872783C7
:0406FF000087F793E6
:04070000FE079CE371
:0407010000168693C5
:04070200FFF6C783B4
:04070300FE0792E378
:04070400000080670A
:0407050002058A63FC
:04070600FFF58793E1
:040707000015069340
:040708000FF7F7935D
:0407090000F686B3BD
:04070A0086C1A703FA
:04070B0000872783B9
:04070C000017F79348
:04070D00FE078CE374
:04070E000007278336
:04070F0000150513B9
:04071000FEF50FA340
:04071100FED512E31C
:0407120000008067FC
:04071300FE010113CF
:040714000010059339
:0407150000000513C8
:0407160000812C230F
:0407170000112E237C
:0407180000912A23FF
:04071900012128236F
:04071A000131262360
:04071B000050041373
:04071C003C8000EF2E
:04071D000010059330
:04071E0000100513AF
:04071F003EC000EFE9
:040720001F4005135E
:04072100180000EFCD
:0407220000100513AB
:04072300000005933A
:040724003D8000EF25
:04072500FFF40413C6
:040726001F40051358
:04072700168000EF49
:04072800FC041AE3D0
:0407290000100913A0
:04072A00020009932D
:04072B000080006FDB
:04072C000734026329
:04072D00008914B378
:04072E0000400593EF
:04072F00001005377A
:040730000004861328
:04073100735000EF12
:0407320000400593EB
:040733000010053776
:04073400719000EFD1
:040735000014041395
:04073600FCA48CE3B0
:040737000010059316
:040738000070051335
:04073900354000EF58
:04073A000070051333
:04073B000010059312
:04073C00378000EF13
:04073D0001C1208353
:04073E00018124030E
:04073F0001412483CD
:040740000101290387
:0407410000C1298347
:04074200001005138B
:04074300020101139B
:0407440000008067CA
:040745000010059308
:040746000010051387
:0407470031C000EFCE
:040748000010059305
:040749000010051384
:04074A00340000EF88
:04074B000001C537AD
:04074C00200505136C
:04074D00E29FF0EF48
:04074E0001C1208342
:04074F0001812403FD
:0407500001412483BC
:040751000101290376
:0407520000C1298336
:04075300000005138A
:04075400020101138A
:0407550000008067B9
:04075600EF5FF06FF2
:04075700000107B7DF
:040758007847A783B4
:0407590000A7A22330
:04075A0000008067B4
:04075B00000107B7DB
:04075C007847A783B0
:04075D00FFF505138C
:04075E0000A7A0232D
:04075F0000008067AF
:04076000000107B7D6
:040761007847A783AB
:0407620000A7A82321
:0407630000008067AB
:04076400000107B7D2
:040765007847A783A7
:040766000020071355
:0407670000E7A423E0
:0407680000008067A6
:04076900000107B7CD
:04076A007847A783A2
:04076B000007A423BC
:04076C0000008067A2
:04076D00000107B7C9
:04076E007847A7839E
:04076F000087A50357
:04077000000080679E
:04077100000107B7C5
:040772007847A7839A
:0407730000C7A50313
:04077400000080679A
:04077500000107B7C1
:040776007847A78396
:040777000047A5038F
:040778000000806796
:04077900000107B7BD
:04077A007847A78392
:04077B000107A503CA
:04077C000000806792
:04077D00000107B7B9
:04077E007847A7838E
:04077F000007A503C7
:04078000000080678E
:040781000405006308
:04078200000107B7B4
:040783007847A70309
:040784000000C63774
:0407850000000693D7
:04078600350606131B
:0407870000200593B6
:040788000007202323
:0407890000C728235A
:04078A00000722231F
:04078B0000B724236C
:04078C0000C72783F8
:04078D00FE078EE3F2
:04078E000007242319
:04078F000016869337
:04079000FEA690E34E
:04079100000080677D
:0407920002050E63EB
:04079300000107B7A3
:040794007847A703F8
:0407950000000693C7
:0407960003200593A4
:040797000020061325
:040798000007202313
:0407990000B728235A
:04079A00000722230F
:04079B0000C724234C
:04079C0000C72783E8
:04079D00FE078EE3E2
:04079E000007242309
:04079F000016869327
:0407A000FEA690E33E
:0407A100000080676D
:0407A200FC01011342
:0407A30000100593AA
:0407A4000020051319
:0407A50003312623D3
:0407A60002112E23EB
:0407A70002812C237C
:0407A80002912A236D
:0407A90003212823DD
:0407AA0003412423C0
:0407AB0003512223B1
:0407AC0003612023A2
:0407AD0001712E2385
:0407AE0001812C2376
:0407AF0001912A2367
:0407B0000050099359
:0407B100174000EFFE
:0407B200001005939B
:0407B300002005130A
:0407B400198000EFB9
:0407B5001F400513C9
:0407B600F2DFF0EF8F
:0407B7000020051306
:0407B80000000593A5
:0407B900184000EFF5
:0407BA00FFF9899327
:0407BB001F400513C3
:0407BC00F15FF0EF0A
:0407BD00FC099AE3B6
:0407BE00100007938D
:0407BF0000F116230C
:0407C00000010937F4
:0407C100004007935A
:0407C20000F1072318
:0407C30000C10B1353
:0407C4007889091314
:0407C50000100A9383
:0407C60000B00B93E1
:0407C70002000C130D
:0407C80000098C9305
:0407C9000010041305
:0407CA000409946327
:0407CB00000B448358
:0407CC0000092503F8
:0407CD00008A9A33D1
:0407CE00000485930B
:0407CF00000A061303
:0407D0004B9000EF5B
:0407D10000092503F3
:0407D2000004859307
:0407D30049D000EF1A
:0407D4000CAA1E63EA
:0407D50000140413F5
:0407D600FD741AE3B1
:0407D70000198993E9
:0407D800001B0B13E4
:0407D900FBDFF06FE3
:0407DA0000140413F0
:0407DB000784086324
:0407DC00000B448347
:0407DD0000092503E7
:0407DE00008A9A33C0
:0407DF0000048593FA
:0407E000000A0613F2
:0407E100475000EF8E
:0407E20000092503E2
:0407E30000048593F6
:0407E400459000EF4D
:0407E500FD450AE3E1
:0407E6000010059367
:0407E7000070051386
:0407E800098000EF95
:0407E9000070051384
:0407EA000010059363
:0407EB000BC000EF50
:0407EC0000092503D8
:0407ED0000048593EC
:0407EE00431000EFC5
:0407EF000005069368
:0407F00000010537C8
:0407F10000040613E7
:0407F200000C8593DF
:0407F3004585051320
:0407F400EECFE0EF75
:0407F50000100513D8
:0407F6000200006F8E
:0407F700F95990E339
:0407F8000010059355
:0407F90000200513C4
:0407FA00050000EF07
:0407FB0000200513C2
:0407FC000010059351
:0407FD00074000EFC2
:0407FE0003C1208390
:0407FF00038124034B
:040800000341248309
:0408010003012903C3
:0408020002C1298383
:0408030002812A0341
:0408040002412A8300
:0408050002012B03BE
:0408060001C12B837E
:0408070001812C033C
:0408080001412C83FB
:0408090004010113D2
:04080A000000806703
:04080B0000000C934A
:04080C00F69FF06FF4
:04080D00E55FF06F44
:04080E008081A7033B
:04080F00001007933B
:0408100000A7953375
:040811000007278332
:0408120000058863F2
:0408130000F5653354
:0408140000A72023F6
:0408150000008067F8
:04081600FFF5451392
:0408170000F5753340
:0408180000A72023F2
:0408190000008067F4
:04081A008081A7032F
:04081B00001007932F
:04081C0000A7953369
:04081D0000472783E6
:04081E0000058863E6
:04081F0000F5653348
:0408200000A72223E8
:0408210000008067EC
:04082200FFF5451386
:0408230000F5753334
:0408240000A72223E4
:0408250000008067E8
:040826008081A783A3
:040827000087A7831C
:0408280000A7D5331D
:04082900001575132E
:04082A0000008067E3
:04082B008081A7839E
:04082C00004007136E
:04082D0000E7A62317
:04082E0000008067DF
:04082F008081A7839A
:04083000002007138A
:0408310000E7A62313
:0408320000008067DB
:040833008081A78396
:040834000010071396
:0408350000E7A6230F
:0408360000008067D7
:040837008081A78392
:0408380000A7A02352
:0408390000008067D4
:04083A008081A7838F
:04083B0000A7A2234D
:04083C0000008067D1
:04083D008081A7838C
:04083E000087A50387
:04083F0000008067CE
:040840008081A78389
:040841000007A50304
:0408420000008067CB
:040843008081A70306
:0408440000C727833F
:040845000207E7932C
:0408460000F726236E
:0408470000008067C6
:04084800FD0101139A
:040849000010059303
:04084A000000051392
:04084B0002812423DF
:04084C00021126234C
:04084D0002912223CF
:04084E00032120233F
:04084F0001312E2322
:0408500001412C2313
:0408510001512A2304
:0408520001612823F5
:04085300005004133A
:04085400EE9FF0EF34
:0408550000100593F7
:040856000000051386
:04085700F0DFF0EFEF
:040858001F40051325
:04085900CA1FF0EFD3
:04085A000000051382
:04085B000000059301
:04085C00EF9FF0EF2B
:04085D00FFF404138D
:04085E001F4005131F
:04085F00C89FF0EF4F
:04086000FC041AE397
:0408610010000793E9
:0408620000F1162368
:0408630000C1099334
:0408640000E10B1391
:0408650000100A1362
:0408660001000A93F0
:040867000010041366
:040868000009C903B7
:04086900008A14B33A
:04086A00004005370E
:04086B0000048613EC
:04086C0000090593E7
:04086D00245000EF24
:04086E0000090593E5
:04086F000040053709
:04087000229000EFE3
:040871000014041358
:0408720004A49A63DD
:04087300FD541AE333
:04087400001989934B
:04087500FD6994E3A2
:0408760000100593D6
:040877000000051365
:04087800E59FF0EF19
:040879000000051363
:04087A0000100593D2
:04087B00E7DFF0EFD4
:04087C000000051360
:04087D0002C1208311
:04087E0002812403CC
:04087F00024124838B
:040880000201290345
:0408810001C1298305
:0408820001812A03C3
:0408830001412A8382
:0408840001012B0340
:040885000301011357
:040886000000806787
:0408870000100593C5
:0408880000700513E4
:04088900E15FF0EF4C
:04088A0000700513E2
:04088B0000100593C1
:04088C00E39FF0EF07
:04088D00001005133F
:04088E00FBDFF06F2D
:04088F00EE5FF06FB9
:040890008101A783B8
:0408910006A7AA23E9
:04089200000080677B
:0408930000961613A2
:0408940008660613D9
:0408950000459593F2
:04089600010007B79F
:0408970000B606336E
:0408980000351513FF
:0408990080F1A8231F
:04089A0000A606337B
:04089B0006C7A023C9
:04089C00FFF007134F
:04089D0006E7A8239F
:04089E0000A007139C
:04089F0004E7A023A7
:0408A000000080676D
:0408A1008101A783A7
:0408A200FFF5451306
:0408A30006A7A823D9
:0408A4000000806769
:0408A50081018693B4
:0408A6000006A7831E
:0408A70006A7A423D9
:0408A8000000001339
:0408A9000000001338
:0408AA000000001337
:0408AB000006A70399
:0408AC000647278351
:0408AD000047F79376
:0408AE00FE0788E3D6
:0408AF0006C7250350
:0408B0000FF57513B8
:0408B100000080675C
:0408B20004B05263D9
:0408B30081018693A6
:0408B4000006A70390
:0408B50000B5063351
:0408B6000FF00593A7
:0408B7000015051310
:0408B80006B7242338
:0408B9000000001328
:0408BA000000001327
:0408BB000000001326
:0408BC000006A70388
:0408BD000647278340
:0408BE000047F79365
:0408BF00FE0788E3C5
:0408C00006C72783BD
:0408C100FEF50FA38E
:0408C200FCA61AE393
:0408C300000080674A
:0408C4000005478361
:0408C50002078E6335
:0408C6008101869393
:0408C7000006A7037D
:0408C80000150513FF
:0408C90006F72423E7
:0408CA000000001317
:0408CB000000001316
:0408CC000000001315
:0408CD000006A70377
:0408CE00064727832F
:0408CF000047F79354
:0408D000FE0788E3B4
:0408D1000005478354
:0408D20006C726032C
:0408D300FC079AE3A1
:0408D4000000806739
:0408D500FF0101130B
:0408D6000000061305
:0408D7000000059385
:0408D8000000051304
:0408D90000112623C1
:0408DA00EE5FF0EFEE
:0408DB0003200513DE
:0408DC00ED1FF0EF2D
:0408DD0000000513FF
:0408DE00F0DFF0EF68
:0408DF0000100513ED
:0408E000F05FF0EFE6
:0408E10000010537D6
:0408E20052C50513E3
:0408E300F85FF0EFDB
:0408E40000000513F8
:0408E500EF1FF0EF22
:0408E60000C12083AA
:0408E7001F40051396
:0408E80001010113F6
:0408E900A61FF06FE7
:0408EA00FF010113F6
:0408EB0000000613F0
:0408EC000000059370
:0408ED0000000513EF
:0408EE0000112623AC
:0408EF00008124233D
:0408F000E8DFF0EF5E
:0408F10003200513C8
:0408F200E79FF0EF9D
:0408F30000000513E9
:0408F400EB5FF0EFD7
:0408F50000100513D7
:0408F600EADFF0EF56
:0408F70000000413E6
:0408F80000A00593C4
:0408F90000040513DF
:0408FA00EE1FF0EF0E
:0408FB0000000513E1
:0408FC00E95FF0EFD1
:0408FD0000040513DB
:0408FE00FE4FF0EFCA
:0408FF00008124034D
:0409000000C120838F
:0409010000010537B5
:04090200484505134C
:0409030001010113DA
:04090400FCCFF06FC5
:04090500FB010113DE
:040906000481242321
:040907000521202383
:0409080003312E2366
:04090900041126238C
:04090A00049122230F
:04090B0003412C2355
:04090C0003512A2346
:04090D000361282337
:04090E000371262328
:04090F0000000413CD
:0409100000100913B7
:040911000100099345
:04091200008914B391
:040913000740059301
:0409140001000537A2
:040915000004861341
:040916007A0000EF74
:0409170007400593FD
:04091800010005379E
:04091900784000EF33
:04091A0000140413AE
:04091B000EA494632F
:04091C00FD341CE3A7
:04091D00000107B717
:04091E0048878793EC
:04091F000007A883A2
:040920000047A803E1
:040921000087A503A3
:0409220000C7A583E2
:040923000107A6031F
:040924000147A6835E
:040925000187A7039C
:0409260001C7A783DB
:040927000111202377
:040928000101222384
:0409290000A12423E2
:04092A0000B12623CF
:04092B0000C12823BC
:04092C0000D12A23A9
:04092D0000E12C2396
:04092E0000F12E2383
:04092F0000010A9326
:0409300002010B9322
:040931000010099316
:0409320000800A1324
:04093300000AAB0308
:0409340000000413A8
:040935000FFB791328
:04093600008994B3ED
:04093700010005377F
:04093800000486131E
:040939000009059319
:04093A00710000EF59
:04093B000009059317
:04093C00010005377A
:04093D006F4000EF18
:04093E00001404138A
:04093F0008A49A630B
:04094000FD441CE373
:04094100004A8A934B
:04094200FD5B92E3E4
:040943000000061397
:040944000000059317
:040945000000051396
:04094600D35FF0EF9C
:040947000320051371
:04094800D21FF0EFDB
:04094900000104B7EE
:04094A00518485133C
:04094B00DE5FF0EF8C
:04094C000000041390
:04094D00010005930D
:04094E000004051389
:04094F00D8DFF0EF0E
:0409500051848593B6
:040951000004051386
:04095200234020EF2F
:0409530000A0353398
:040954000140006FEF
:040955000001053761
:040956004A850513B6
:04095700E80FF0EFC6
:040958000010051373
:0409590004C1208332
:04095A0004812403ED
:04095B0004412483AC
:04095C000401290366
:04095D0003C1298326
:04095E0003812A03E4
:04095F0003412A83A3
:0409600003012B0361
:0409610002C12B8321
:040962000501011377
:0409630000008067A9
:040964000001053752
:04096500000B0593EB
:040966004DC5051363
:04096700920FE0EF1C
:040968000010051363
:04096900FC1FF06F10
:04096A0000251793BA
:04096B0000A7853329
:04096C0002FAF7B7DD
:04096D00080787935D
:04096E0002A7D7B352
:04096F000200073744
:0409700080E1AA2355
:040971000007222336
:0409720000072A232D
:04097300FFF7879370
:0409740000F7202345
:0409750008000793DC
:0409760000F7222341
:040977000000806795
:040978008141A7838F
:040979000007AA23A6
:04097A000000806792
:04097B00814187939C
:04097C000007A703C6
:04097D000015F593D9
:04097E000015151338
:04097F0000B5653327
:0409800000A7282381
:0409810009000693D0
:0409820000D72A234D
:04098300000000135D
:04098400000000135C
:040985000007A703BD
:0409860000C72783FC
:040987000027F793BB
:04098800FE079CE3E7
:040989000000806783
:04098A00814187938D
:04098B000007A703B7
:04098C0000A7282375
:04098D000205846378
:04098E0005000693C7
:04098F0000D72A2340
:040990000000001350
:04099100000000134F
:040992000007A703B0
:0409930000C72783EF
:040994000027F793AE
:04099500FE079CE3DA
:040996000000806776
:0409970001000693C2
:0409980000D72A2337
:04099900FDDFF06F1F
:04099A00814187937D
:04099B000007A703A7
:04099C0002050663E7
:04099D000680069337
:04099E0000D72A2331
:04099F000000001341
:0409A0000000001340
:0409A1000007A703A1
:0409A20000C72783E0
:0409A3000027F7939F
:0409A400FE079CE3CB
:0409A500008725039F
:0409A6000000806766
:0409A70002000693B1
:0409A80000D72A2327
:0409A900FD9FF06F4F
:0409AA00FC01011338
:0409AB0002912A2368
:0409AC0002812C2375
:0409AD0003312623C9
:0409AE0003412423BA
:0409AF0002112E23E0
:0409B00003212823D4
:0409B10003512223A9
:0409B200036120239A
:0409B30001712E237D
:0409B40001812C236E
:0409B5000000041327
:0409B60080C18493E5
:0409B7000010099390
:0409B80001000A131D
:0409B9000004A5038E
:0409BA0000899933E4
:0409BB0000000593A0
:0409BC000009061315
:0409BD00504000EFB7
:0409BE000004A50389
:0409BF00000005939C
:0409C0000014041308
:0409C1004E4000EFB5
:0409C20014A91663FB
:0409C300FD441CE3F0
:0409C4000020079375
:0409C50000F12223F8
:0409C6000040079353
:0409C70000F12423F4
:0409C8000050079341
:0409C90001312023B5
:0409CA0000F12623EF
:0409CB0000010B1309
:0409CC0001010C1306
:0409CD0000100B9378
:0409CE0000100A13F8
:0409CF0000800A9307
:0409D0000FFBF9938D
:0409D100000004130B
:0409D2000004A50375
:0409D300008A19334A
:0409D40000098593FE
:0409D50000090613FC
:0409D6004A0000EFE4
:0409D7000004A50370
:0409D80000098593FA
:0409D90000140413EF
:0409DA00480000EFE2
:0409DB000EA91E63E0
:0409DC00FD541CE3C7
:0409DD00004B0B13AD
:0409DE00018B066320
:0409DF00000B2B835B
:0409E000FC1FF06F99
:0409E100E5DFF0EF6F
:0409E20000062537AF
:0409E300A80505134B
:0409E400E19FF0EFB0
:0409E50000010AB74C
:0409E6000000059375
:0409E70000000513F4
:0409E800518A849319
:0409E900E49FF0EFA8
:0409EA0000F4891379
:0409EB00518A841396
:0409EC0000044503BB
:0409ED00000005936E
:0409EE0000140413DA
:0409EF00E6DFF0EF60
:0409F000FF2418E3E5
:0409F100001005935A
:0409F20003F00513F6
:0409F300E5DFF0EF5D
:0409F4000000099363
:0409F5000010059356
:0409F60000000513E5
:0409F700E11FF0EF1D
:0409F80000598A1305
:0409F900000984135A
:0409FA0000000513E1
:0409FB00E7DFF0EF53
:0409FC0000A4002330
:0409FD0000140413CB
:0409FE00FE8A18E372
:0409FF0000100513CC
:040A0000E69FF0EF8E
:040A01000000079357
:040A020000A782A324
:040A0300518A8593FC
:040A0400000785134F
:040A0500769010EFE8
:040A06000010079342
:040A0700060502637B
:040A080003C1208383
:040A0900038124033E
:040A0A0003412483FD
:040A0B0003012903B7
:040A0C0002C1298377
:040A0D0002812A0335
:040A0E0002412A83F4
:040A0F0002012B03B2
:040A100001C12B8372
:040A110001812C0330
:040A12000007851341
:040A130004010113C6
:040A140000008067F7
:040A150000010537A0
:040A1600540505136B
:040A1700B80FF0EF35
:040A18000010079330
:040A1900FBDFF06FA0
:040A1A00000105379B
:040A1B00000B8593B4
:040A1C0057850513E2
:040A1D00E49FD0EF93
:040A1E00001007932A
:040A1F00FA5FF06F1B
:040A2000000005933A
:040A210000100513A9
:040A2200D65FF0EFBC
:040A23000004C50303
:040A24000000059336
:040A250000148493A2
:040A2600D91FF0EFF5
:040A2700FF2498E32D
:040A28000010059322
:040A290003F00513BE
:040A2A00D81FF0EFF2
:040A2B00001005931F
:040A2C00001005139E
:040A2D00D39FF0EF74
:040A2E0000000513AC
:040A2F00DADFF0EF2B
:040A300000A9802376
:040A3100001989938C
:040A3200FF3A18E38C
:040A33000010051397
:040A3400D99FF0EF67
:040A3500518A8593CA
:040A360000000513A4
:040A37006A1010EF42
:040A380000A037B330
:040A3900F3DFF06F88
:040A3A00FF010113A4
:040A3B0000812423EF
:040A3C0000912223E0
:040A3D00001126235B
:040A3E000005049318
:040A3F00000004139C
:040A400000C0006F83
:040A41000014041386
:040A4200D21FF0EFE0
:040A43000004851313
:040A44007E9010EFA1
:040A4500FFF507139F
:040A4600008487B3EE
:040A47000000059313
:040A48000007C503DB
:040A4900FEE460E384
:040A4A000081240300
:040A4B0000C1208343
:040A4C0000412483BE
:040A4D0000100593FD
:040A4E00010101138E
:040A4F00CEDFF06F97
:040A5000FF0101138E
:040A510000812423D9
:040A520000912223CA
:040A5300012120233A
:040A54000011262344
:040A5500000509137C
:040A56000005041380
:040A570000550493AF
:040A58000000051382
:040A5900D05FF0EF8B
:040A5A0000A40023D1
:040A5B00001404136C
:040A5C00FE9418E309
:040A5D00001005136D
:040A5E00CF1FF0EFC7
:040A5F0000A902A345
:040A600000C120832E
:040A610000812403E9
:040A620000412483A8
:040A63000001290362
:040A64000101011378
:040A650000008067A6
:040A6600000625372A
:040A6700FF01011377
:040A6800A8050513C5
:040A6900001126232F
:040A6A0000812423C0
:040A6B0000912223B1
:040A6C00BF9FF0EF49
:040A6D0000100593DD
:040A6E0000900513DC
:040A6F00C31FF0EFC2
:040A7000000005136A
:040A7100CA5FF0EF79
:040A720000050493E4
:040A73000010051357
:040A7400C99FF0EF37
:040A75000005041361
:040A76000FF4F51371
:040A77009A8FF0EF73
:040A78000FF47513EF
:040A79009A0FF0EFF1
:040A7A00000105373B
:040A7B0048450513D2
:040A7C009ECFF0EF2A
:040A7D0000812403CD
:040A7E0000C1208310
:040A7F00004124838B
:040A80003E8005139C
:040A8100010101135B
:040A8200BFCFF06F83
:040A8300020017B79F
:040A840080F1AC232E
:040A85000007A223A1
:040A86000000806785
:040A87008181A7833F
:040A880000A7A823F8
:040A89000000806782
:040A8A008181A7833C
:040A8B0000A7AA23F3
:040A8C00000080677F
:040A8D008181A78339
:040A8E0000A7A023FA
:040A8F00000080677C
:040A90008181A78336
:040A910000A7A423F3
:040A92000000806779
:040A93008181A78333
:040A940000A7A623EE
:040A95000000806776
:040A96008181A78330
:040A970000A7AC23E5
:040A98000000806773
:040A99008181A7832D
:040A9A0000A7AE23E0
:040A9B000000806770
:040A9C008181A703AA
:040A9D000047278364
:040A9E000017E793C3
:040A9F0000F7222317
:040AA000000080676B
:040AA1008181A703A5
:040AA200004727835F
:040AA3000027E793AE
:040AA40000F7222312
:040AA5000000806766
:040AA6008181A703A0
:040AA700004727835A
:040AA8000FE7F793CA
:040AA90000F722230D
:040AAA000000806761
:040AAB008181A7039B
:040AAC000047278355
:040AAD000FD7F793D5
:040AAE0000F7222308
:040AAF00000080675C
:040AB0008181A78316
:040AB1000047A50352
:040AB2000000806759
:040AB300FC0101132E
:040AB40002112E23DA
:040AB50003312623C0
:040AB60003412423B1
:040AB70003512223A2
:040AB80002812C2368
:040AB90002912A2359
:040ABA0003212823C9
:040ABB000361202390
:040ABC00F1DFF0EF87
:040ABD000BF0051322
:040ABE00F25FF0EF04
:040ABF000800051313
:040AC000F29FF0EFC2
:040AC100F6DFF0EF7D
:040AC200F7DFF0EF7B
:040AC30000002537D3
:040AC40071050513A0
:040AC500AF0FF0EF90
:040AC600F81FF0EF36
:040AC700F91FF0EF34
:040AC800000107B76B
:040AC9005B4787936D
:040ACA000007A80376
:040ACB000047A50338
:040ACC000087A58377
:040ACD0000C7A603B5
:040ACE000107A683F3
:040ACF000147A70331
:040AD0000187A78370
:040AD10001012223DA
:040AD20000A1242338
:040AD30000B1262325
:040AD40000C1282312
:040AD50000D12A23FF
:040AD60000E12C23EC
:040AD70000F12E23D9
:040AD80000410A933C
:040AD900001009936D
:040ADA0000800A137B
:040ADB00000AAB035F
:040ADC0000000413FF
:040ADD000FFB79137F
:040ADE00008994B344
:040ADF0002001537C5
:040AE0000004861375
:040AE1000009059370
:040AE200070000EF1A
:040AE300000905936E
:040AE40002001537C0
:040AE500054000EFD9
:040AE60000140413E1
:040AE70000A498636C
:040AE800FD441CE3CA
:040AE900004A8A93A2
:040AEA00FC5FF06F4E
:040AEB0000010537CA
:040AEC00000B059363
:040AED005D0505138B
:040AEE00B05FD0EF36
:040AEF0003C120839C
:040AF0000381240357
:040AF1000341248316
:040AF20003012903D0
:040AF30002C1298390
:040AF40002812A034E
:040AF50002412A830D
:040AF60002012B03CB
:040AF70000100513D3
:040AF80004010113E1
:040AF9000000806712
:040AFA0000259593AB
:040AFB0000B505B38A
:040AFC000005A50349
:040AFD00000080670E
:040AFE0000259593A7
:040AFF0000B505B386
:040B000000C5A02369
:040B01000000806709
:040B020000100837A0
:040B0300FFF80813DC
:040B040000B878B30A
:040B05000038989389
:040B060001D557932B
:040B0700FE010113D7
:040B08000145D713B9
:040B090000D8783365
:040B0A000117E7B335
:040B0B000146D89334
:040B0C000038181382
:040B0D0000912A2306
:040B0E000121282376
:040B0F007FF7749365
:040B10007FF8F893DF
:040B110001D657139F
:040B120000112E237D
:040B130000812C230E
:040B14000131262362
:040B150001F5D913FA
:040B160001F6D6937B
:040B17000107673338
:040B1800003515137C
:040B19000036161379
:040B1A0041148833C7
:040B1B002CD914635A
:040B1C0011005E6303
:040B1D0004089063D5
:040B1E0000C766B3F3
:040B1F007006806379
:040B2000FFF8059342
:040B210002059063D6
:040B220000C50633D1
:040B230000A63533C0
:040B240000E787B3AC
:040B250000A787B3EB
:040B260000060513AD
:040B27000010049323
:040B28000700006F53
:040B29007FF00693C0
:040B2A0002D810637A
:040B2B007FF00493C0
:040B2C0020C0006F76
:040B2D007FF00693BC
:040B2E0020D48263EA
:040B2F00008006B785
:040B300000D7673350
:040B31000008059320
:040B320003800693A3
:040B33000AB6CA63D1
:040B340001F0069333
:040B350006B6CC63D1
:040B3600020008139E
:040B370040B8083387
:040B3800010716B3E8
:040B390000B658B3F7
:040B3A000106163367
:040B3B000116E6B306
:040B3C0000C036338C
:040B3D0000C6E633D5
:040B3E0000B7573372
:040B3F0000A60633D3
:040B400000F7073380
:040B410000A637B320
:040B420000F707B3FE
:040B43000006051390
:040B4400008797137C
:040B45001A075463D4
:040B46000014849380
:040B47007FF0071321
:040B48005CE4846382
:040B4900FF8006B76C
:040B4A00FFF6869399
:040B4B0000D7F6B326
:040B4C0000155593A8
:040B4D000015751307
:040B4E0001F6979382
:040B4F0000A5E533E5
:040B500000A7E533E2
:040B51000016D79320
:040B52001740006FD9
:040B5300FE05869382
:040B54000200089300
:040B550000D756B3BC
:040B56000000081380
:040B57000115886399
:040B5800040008137A
:040B590040B805B3E8
:040B5A0000B7183395
:040B5B0000C8663335
:040B5C0000C036336C
:040B5D0000C6E633B5
:040B5E000000071379
:040B5F00F81FF06F1C
:040B600000C7663331
:040B610000C0363367
:040B6200FF1FF06F12
:040B63000E08026313
:040B6400409885B37D
:040B650002049E6385
:040B660000A7E6B34B
:040B67005206866349
:040B6800FFF586937C
:040B690000069C6383
:040B6A0000C505338A
:040B6B0000E787B365
:040B6C0000C5363357
:040B6D0000C787B383
:040B6E00EE5FF06FD7
:040B6F007FF00813F8
:040B70000305926384
:040B710000070793DF
:040B72000006051361
:040B7300EE1FF06F12
:040B74007FF0069375
:040B7500FED888E33B
:040B7600008006B73E
:040B770000D7E7B309
:040B7800000586935B
:040B7900038005935D
:040B7A0006D5CE636B
:040B7B0001F00593ED
:040B7C0004D5C06379
:040B7D000200081357
:040B7E0040D8083320
:040B7F0000D5533317
:040B8000010795B321
:040B81000105153322
:040B82000065E5B372
:040B830000A0353366
:040B840000A5E533B0
:040B850000D7D6B30C
:040B860000C505336E
:040B870000E687B34A
:040B880000C536333B
:040B890000C787B367
:040B8A000008849348
:040B8B00EE5FF06FBA
:040B8C00FE06859349
:040B8D00020003134C
:040B8E0000B7D5B324
:040B8F000000081347
:040B90000066886310
:040B91000400081341
:040B920040D806B38E
:040B930000D79833BC
:040B940000A865331D
:040B950000A0353354
:040B960000A5E5339E
:040B970000000693C1
:040B9800FB9FF06F60
:040B990000A7E53399
:040B9A0000A035334F
:040B9B00FF1FF06FD9
:040B9C000014869328
:040B9D007FE6F59367
:040B9E00080596634D
:040B9F0000A7E6B312
:040BA0000604926352
:040BA10044068A6319
:040BA20000C766B36F
:040BA300020688635B
:040BA40000C506334F
:040BA50000E787B32B
:040BA60000A635333D
:040BA70000A787B369
:040BA8000087971318
:040BA900000605132A
:040BAA0000075A6383
:040BAB00FF80073789
:040BAC00FFF7071335
:040BAD0000E7F7B3B3
:040BAE00001004939C
:040BAF000075771343
:040BB000420708638D
:040BB10000F57713C1
:040BB2000040069366
:040BB30042D70263C0
:040BB400004506935F
:040BB50000A6B533AE
:040BB60000A787B35A
:040BB700000685139C
:040BB8004100006F89
:040BB900EE0680E3E1
:040BBA0000C76633D7
:040BBB00DC0600E371
:040BBC000000091319
:040BBD00004007B736
:040BBE00000005131B
:040BBF007FF004932C
:040BC0003F00006F83
:040BC1007FF0059329
:040BC2003CB68E634C
:040BC30000C5063330
:040BC40000E787338C
:040BC50000A637B39C
:040BC60000F70733FA
:040BC70001F715130A
:040BC80000165613AA
:040BC90000C56533CB
:040BCA000017579326
:040BCB000006849309
:040BCC00F8DFF06FEF
:040BCD000F005C6356
:040BCE0008089E6312
:040BCF0000C766B342
:040BD00042068E63E8
:040BD100FFF8059391
:040BD2000205906325
:040BD30040C50633E0
:040BD40000C53533F0
:040BD50040E787B3BB
:040BD60040A787B3FA
:040BD70000060513FC
:040BD8000010049372
:040BD9000540006F64
:040BDA007FF006930F
:040BDB00D4D800E387
:040BDC0003800693F9
:040BDD000AB6C6632B
:040BDE0001F0069389
:040BDF0006B6C8632B
:040BE00002000813F4
:040BE10040B80833DD
:040BE200010716B33E
:040BE30000B658B34D
:040BE40001061633BD
:040BE5000116E6B35C
:040BE60000C03633E2
:040BE70000C6E6332B
:040BE80000B75733C8
:040BE90040C50633CA
:040BEA0040E7873326
:040BEB0000C537B357
:040BEC0040F707B314
:040BED0000060513E6
:040BEE0000879713D2
:040BEF00F00750E3D8
:040BF0000080043746
:040BF100FFF40413F6
:040BF2000087F43351
:040BF300000509935D
:040BF40020C0006FAE
:040BF5007FF00693F4
:040BF600EED482E3D4
:040BF700008006B7BD
:040BF80000D7673388
:040BF9000008059358
:040BFA00F89FF06F01
:040BFB00FE058693DA
:040BFC000200089358
:040BFD0000D756B314
:040BFE0000000813D8
:040BFF0001158863F1
:040C000004000813D1
:040C010040B805B33F
:040C020000B71833EC
:040C030000C866338C
:040C040000C03633C3
:040C050000C6E6330C
:040C060000000713D0
:040C0700F89FF06FF3
:040C080000C7663388
:040C090000C03633BE
:040C0A00FF1FF06F69
:040C0B000E08086364
:040C0C004098883351
:040C0D0004049263E6
:040C0E0000A7E5B3A3
:040C0F0034058463C1
:040C1000FFF8059351
:040C110000059E63D9
:040C120040A60533C0
:040C130040F707B3EC
:040C140000A63633CD
:040C150040C787B39A
:040C16000006891338
:040C1700F05FF06F2B
:040C18007FF0031353
:040C190002681463F6
:040C1A000007079335
:040C1B0000060513B7
:040C1C007FF00493CE
:040C1D000D00006F57
:040C1E007FF00593CB
:040C1F00FEB886E3B2
:040C2000008005B794
:040C210000B7E7B37E
:040C2200000805932E
:040C2300038008132F
:040C240008B8406369
:040C250001F00813BF
:040C260004B8426369
:040C270002000313B1
:040C280040B303339F
:040C290000B55E3381
:040C2A000067983394
:040C2B000065153318
:040C2C0001C8683360
:040C2D0000A03533BB
:040C2E0000A8653382
:040C2F0000B7D5B382
:040C300040A60533A2
:040C310040B707B30E
:040C320000A63633AF
:040C330040C787B37C
:040C3400000884939D
:040C35000006891319
:040C3600EE1FF06F4E
:040C3700FE0588131B
:040C380002000E1395
:040C39000107D833A4
:040C3A0000000313A0
:040C3B0001C5886304
:040C3C00040003139A
:040C3D0040B305B308
:040C3E0000B7933335
:040C3F0000A3653376
:040C400000A03533A8
:040C410000A865336F
:040C42000000059316
:040C4300FB5FF06FF4
:040C440000A7E533ED
:040C450000A03533A3
:040C4600FF1FF06F2D
:040C4700001485937D
:040C48007FE5F593BC
:040C490008059663A1
:040C4A0000A7E833E4
:040C4B0000C765B3C6
:040C4C0006049063A7
:040C4D0000081C631C
:040C4E0024058E6388
:040C4F000007079300
:040C50000006051382
:040C510000068913FD
:040C5200D75FF06F09
:040C5300D60588E357
:040C540040C508335C
:040C5500010538B3AA
:040C560040E785B33B
:040C5700411585B30B
:040C580000859893E8
:040C59000008DC6350
:040C5A0040A6053378
:040C5B0040F707B3A4
:040C5C0000A6363385
:040C5D0040C787B352
:040C5E00FCDFF06F58
:040C5F0000B8653341
:040C60002205026304
:040C61000005879370
:040C6200000805136E
:040C6300D31FF06F3C
:040C640000081C6305
:040C650020058C6377
:040C660000070793E9
:040C6700000605136B
:040C680000068913E6
:040C6900B09FF06FD9
:040C6A00B00582E36C
:040C6B00D45FF06FF3
:040C6C0040C509B3C3
:040C6D00013535B365
:040C6E0040E78433A4
:040C6F0040B4043356
:040C70000084159354
:040C71000805D4633B
:040C720040A609B3DC
:040C730040F707B38C
:040C740001363633DC
:040C750040C78433BD
:040C760000068913D8
:040C77000804026308
:040C7800000405135C
:040C7900140010EF64
:040C7A00FF850713D8
:040C7B0001F00793EA
:040C7C0008E7C06362
:040C7D0002000793D7
:040C7E0040E787B311
:040C7F0000E4143346
